:100000000C9472000C948F000C948F000C948F0051
:100010000C948F000C948F000C948F000C948F0024
:100020000C948F000C948F000C948F000C948F0014
:100030000C948F000C948F000C948F000C948F0004
:100040000C948F000C948F000C948F000C948F00F4
:100050000C948F009D00B600CF00E8000001000165
:100060000001000100010001000100010001000188
:100070000001000100010001000100010001000178
:100080000001000100010001000100010001000168
:10009000000100019D00B600CF00E8000D0126011F
:1000A0003F01580170017001700170017001700111
:1000B00070017001700170017001700170017001B8
:1000C00070017001700170017001700170017001A8
:1000D0007001700170017001700170010D01260145
:1000E0003F01580111241FBECFE5D8E0DEBFCDBFD0
:1000F00010E0A0E6B0E0E4E1F3E002C005900D926C
:10010000A036B107D9F720E0A0E6B0E001C01D920B
:10011000A036B207E1F70E9479010C9488010C9493
:10012000000090E0FC01E154F109E432F10508F02F
:1001300067C0E65DFF4F0C948201413059F42AB349
:1001400081E090E002C0880F991F6A95E2F7822B48
:100150008ABB08952AB381E090E002C0880F991FFE
:100160006A95E2F7809582238ABB0895413059F45D
:1001700027B381E090E002C0880F991F6A95E2F7EB
:10018000822B87BB089527B381E090E002C0880FDF
:10019000991F6A95E2F78095822387BB08954130C5
:1001A00059F424B381E090E002C0880F991F6A954A
:1001B000E2F7822B84BB089524B381E090E002C073
:1001C000880F991F6A95E2F78095822384BB089572
:1001D000413059F421B381E090E002C0880F991FAB
:1001E0006A95E2F7822B81BB089521B381E090E00C
:1001F00002C0880F991F6A95E2F78095822381BB20
:10020000089590E0FC01E154F109E432F10508F0B1
:1002100067C0E25BFF4F0C948201413059F42BB36D
:1002200081E090E002C0880F991F6A95E2F7822B67
:100230008BBB08952BB381E090E002C0880F991F1B
:100240006A95E2F7809582238BBB0895413059F47B
:1002500028B381E090E002C0880F991F6A95E2F709
:10026000822B88BB089528B381E090E002C0880FFC
:10027000991F6A95E2F78095822388BB08954130E3
:1002800059F425B381E090E002C0880F991F6A9568
:10029000E2F7822B85BB089525B381E090E002C090
:1002A000880F991F6A95E2F78095822385BB089590
:1002B000413059F422B381E090E002C0880F991FC9
:1002C0006A95E2F7822B82BB089522B381E090E029
:1002D00002C0880F991F6A95E2F78095822382BB3E
:1002E000089541E00E949100089541E00E940101BB
:1002F000089566E081E40E94710166E081E40E9455
:100300007501FBCFEE0FFF1F0590F491E02D0994CE
:04031000F894FFCF8F
:00000001FF
