S011000061746D656C707265702E7372656349
S11300000C9426010C9443010C9443010C94430179
S11300100C9443010C9443010C9443010C9443014C
S11300200C9443010C9443010C9443010C9443013C
S11300300C9443010C9443010C9443010C9443012C
S11300400C9443010C9443010C9443010C9443011C
S11300500C94430151016A0183019C01B401B40170
S1130060B401B401B401B401B401B401B401B401E4
S1130070B401B401B401B401B401B401B401B401D4
S1130080B401B401B401B401B401B401B401B401C4
S1130090B401B40151016A0183019C01C001C20190
S11300A0C401C601C701C701C701C701C701C70110
S11300B0C701C701C701C701C701C701C701C701FC
S11300C0C701C701C701C701C701C701C701C701EC
S11300D0C701C701C701C701C701C701C001C201E8
S11300E0C401C601D401ED0106021F023702370222
S11300F03702370237023702370237023702370234
S11301003702370237023702370237023702370223
S11301103702370237023702370237023702370213
S113012037023702D401ED0106021F0243024502E1
S1130130470249024A024A024A024A024A024A025F
S11301404A024A024A024A024A024A024A024A024B
S11301504A024A024A024A024A024A024A024A023B
S11301604A024A024A024A024A024A024302450237
S113017047024902570269027B028D029F029F02D5
S11301809F029F029F029F029F029F029F029F0263
S11301909F029F029F029F029F029F029F029F0253
S11301A09F029F029F029F029F029F029F029F0243
S11301B09F029F02570269027B028D02CB02D20288
S11301C0D902E002E602E602E602E602E602E602FE
S11301D0E602E602E602E602E602E602E602E602DB
S11301E0E602E602E602E602E602E602E602E602CB
S11301F0E602E602E602E602E602E602CB02D202EA
S1130200D902E0020D0314031B032203280328036D
S11302102803280328032803280328032803280382
S11302202803280328032803280328032803280372
S11302302803280328032803280328032803280362
S1130240280328030D0314031B03220311241FBED8
S1130250CFE5D8E0DEBFCDBF10E0A0E6B0E0E0ED32
S1130260FBE002C005900D92A037B107D9F720E05A
S1130270A0E7B0E001C01D92A237B207E1F70E94E7
S1130280A1050C94E6050C94000090E0FC01E154F7
S1130290F109E432F10508F067C0E65DFF4F0C9404
S11302A0E005413059F42AB381E090E002C0880FA0
S11302B0991F6A95E2F7822B8ABB08952AB381E0DD
S11302C090E002C0880F991F6A95E2F78095822317
S11302D08ABB0895413059F427B381E090E002C00D
S11302E0880F991F6A95E2F7822B87BB089527B37D
S11302F081E090E002C0880F991F6A95E2F780952B
S1130300822387BB0895413059F424B381E090E0FF
S113031002C0880F991F6A95E2F7822B84BB089567
S113032024B381E090E002C0880F991F6A95E2F738
S11303308095822384BB0895413059F421B381E030
S113034090E002C0880F991F6A95E2F7822B81BB67
S1130350089521B381E090E002C0880F991F6A9547
S1130360E2F78095822381BB089590E0FC01E1547B
S1130370F109E432F10558F4E25BFF4F0C94E00517
S11303806ABB089567BB089564BB089561BB089573
S113039090E0FC01E154F109E432F10508F067C092
S11303A0EE58FF4F0C94E005413059F42BB381E033
S11303B090E002C0880F991F6A95E2F7822B8BBBED
S11303C008952BB381E090E002C0880F991F6A95CD
S11303D0E2F7809582238BBB0895413059F428B30A
S11303E081E090E002C0880F991F6A95E2F7822BA2
S11303F088BB089528B381E090E002C0880F991F5C
S11304006A95E2F78095822388BB0895413059F4B8
S113041025B381E090E002C0880F991F6A95E2F746
S1130420822B85BB089525B381E090E002C0880F3C
S1130430991F6A95E2F78095822385BB0895413020
S113044059F422B381E090E002C0880F991F6A95A5
S1130450E2F7822B82BB089522B381E090E002C0D0
S1130460880F991F6A95E2F78095822382BB0895CD
S113047090E0FC01E154F109E432F10558F4EA5644
S1130480FF4F0C94E0056BBB089568BB089565BBF2
S1130490089562BB089590E0FC01E154F109E4324F
S11304A0F10508F04CC0E654FF4F0C94E00529B365
S11304B081E090E0062E02C0880F991F0A94E2F7AB
S11304C030E08223932302C0959587956A95E2F7DD
S11304D0089526B381E090E0062E02C0880F991F8C
S11304E00A94E2F730E08223932302C0959587951E
S11304F06A95E2F7089523B381E090E0062E02C0E6
S1130500880F991F0A94E2F730E08223932302C0F4
S1130510959587956A95E2F7089520B381E090E078
S1130520062E02C0880F991F0A94E2F730E0822356
S1130530932302C0959587956A95E2F7089581E023
S1130540089541E00E94C8010895CF93DF93C82F16
S1130550D62F462F60E00E9445014D2F61E08C2F7D
S11305600E9445014D2F62E08C2F0E9445014D2FC2
S113057063E08C2F0E944501DF91CF9108956F7045
S113058090E0FC01E154F109E432F105F8F4E2529F
S1130590FF4F0C94E0058BB3807F8BBB8BB3682B30
S11305A06BBB089588B3807F88BB88B3682B68BB16
S11305B0089585B3807F85BB85B3682B65BB08959B
S11305C082B3807F82BB82B3682B62BB0895CF93D2
S11305D0DF93C82FD62F462F64E00E9445014D2F8C
S11305E065E08C2F0E9445014D2F66E08C2F0E9400
S11305F045014D2F67E08C2F0E944501DF91CF917B
S11306000895607F90E0FC01E154F109E432F105C2
S1130610F8F4EE5FFE4F0C94E0058BB38F708BBB48
S11306208BB3682B6BBB089588B38F7088BB88B37A
S1130630682B68BB089585B38F7085BB85B3682B21
S113064065BB089582B38F7082BB82B3682B62BB93
S11306500895CF93C82F6FE00E94B50164E08C2FFA
S11306600E94A10265E08C2F0E94A10266E08C2FFB
S11306700E94A10267E08C2F0E94A102CF910895ED
S1130680FF920F931F93CF93DF93CDB7DEB760979D
S11306900FB6F894DEBF0FBECDBF082F80E1E0E6B1
S11306A0F0E0DE01119601900D928A95E1F7F12CAC
S11306B041E060E0802F0E94C80141E061E0802FAA
S11306C00E94C80141E062E0802F0E94C80141E01D
S11306D063E0802F0E94C80140E06F2D802F0E94AC
S11306E0C80110E064E0610F802F0E944B02811169
S11306F00DC0E1E0F0E0EC0FFD1F84E0F89EE00D9A
S1130700F11D1124E10FF11D808108C01F5F143019
S113071049F7F39484E0F812CBCF8FEF60960FB6CD
S1130720F894DEBF0FBECDBFDF91CF911F910F9123
S1130730FF900895E0917000F091710041E06085B0
S113074087810E94C80183EF91E00197F1F700C00F
S11307500000E0917000F091710040E060858781B5
S11307600E94C80108958F92AF92CF92EF920F9397
S1130770CF93DF93CDB7DEB7909371008093700071
S1130780FC016083E0917000F09171004183E0917D
S11307907000F091710022830383E482C582A682F3
S11307A087828A858087DF91CF910F91EF90CF90D8
S11307B0AF908F900895CF93C82FE0917000F0917F
S11307C071008081813081F46C2F82810E94380213
S11307D0E0917000F091710040E0648183810E9497
S11307E0C8010E949A0358C08181813059F56C2F49
S11307F062956F7082810E940103E0917000F09114
S1130800710040E0648183810E94C8010E949A03C0
S1130810E0917000F09171006C2F82810E940103BD
S1130820E0917000F091710040E0648183810E9446
S1130830C8010E949A0389EF90E00197F1F700C084
S113084000002AC06C2F62956F7082810E94BF02E3
S1130850E0917000F091710040E0648183810E9416
S1130860C8010E949A03E0917000F09171006C2F0E
S113087082810E94BF02E0917000F091710040E01B
S1130880648183810E94C8010E949A0389EF90E0E9
S11308900197F1F700C00000CF9108958091700096
S11308A090917100892B09F4D2C08FE493EC0197E5
S11308B0F1F700C00000E0917000F091710041E098
S11308C0648183810E944501E0917000F091710080
S11308D041E0668185810E944501E0917000F091BC
S11308E0710041E0608587810E944501E0917000BC
S11308F0F091710080818130C1F56FEF82810E9497
S1130900B501E0917000F091710040E0668185814D
S11309100E94C80185EA9EE00197F1F700C000003B
S113092088E30E94DB0389EF90E00197F1F700C0B0
S113093000008EE00E94DB0389EF90E00197F1F75D
S113094000C0000081E00E94DB0383EC99E0019782
S1130950F1F700C0000086E00E94DB0389EF90E01D
S11309600197F1F700C00000089581818130C1F53D
S113097061E082810E94E702E0917000F0917100D1
S113098040E0668185810E94C80185EA9EE0019766
S1130990F1F700C0000088E30E94DB0389EF90E0D8
S11309A00197F1F700C000008EE00E94DB0389EF9D
S11309B090E00197F1F700C0000081E00E94DB03A2
S11309C083EC99E00197F1F700C0000086E00E94F3
S11309D0DB0389EF90E00197F1F700C00000089570
S11309E061E082810E94A502E0917000F0917100A3
S11309F040E0668185810E94C80185EA9EE00197F6
S1130A00F1F700C0000088E30E94DB0389EF90E067
S1130A100197F1F700C000008EE00E94DB0389EF2C
S1130A2090E00197F1F700C0000081E00E94DB0331
S1130A3083EC99E00197F1F700C0000086E00E9482
S1130A40DB0389EF90E00197F1F700C000000895FF
S1130A50CF93C82FE0917000F091710080818130B4
S1130A60B1F46C2F82810E943802E0917000F09101
S1130A70710041E0648183810E94C8010E949A034D
S1130A8089EF90E00197F1F700C0000058C0818120
S1130A90813059F56C2F62956F7082810E94010339
S1130AA0E0917000F091710041E0648183810E94C3
S1130AB0C8010E949A03E0917000F09171006C2FBC
S1130AC082810E940103E0917000F091710041E085
S1130AD0648183810E94C8010E949A0389EF90E097
S1130AE00197F1F700C000002AC06C2F62956F7067
S1130AF082810E94BF02E0917000F091710041E098
S1130B00648183810E94C8010E949A03E09170006D
S1130B10F09171006C2F82810E94BF02E0917000FD
S1130B20F091710041E0648183810E94C8010E94B8
S1130B309A0389EF90E00197F1F700C00000CF918C
S1130B400895CF93DF93CDB7DEB729970FB6F89406
S1130B50DEBF0FBECDBF82E08F930F2EF2E48F2E47
S1130B60F02DAA24A3940F2EF2E4CF2EF02DE12C25
S1130B7002E421E441E061E0CE0101960E94B30366
S1130B800E944E0483E40E9429030F9083E40E9490
S1130B9040038F3FD9F32FE936E891E021503040EC
S1130BA09040E1F700C000000E9428052FE73AE1D9
S1130BB086E0215030408040E1F700C00000E6CFDD
S1130BC0EE0FFF1F0590F491E02D0994F894FFCFE8
S1130BD03738392F3435362A3132332D41303D2BD5
S9030000FC
